:02000000BE2A16
:06000600000000000800EC
:10000C000F3083120313FC004730FD00FD0B0C284E
:0A001C00FC0B0C2800000000080097
:0E002600213083120313FD00FD0B1728080084
:10003400063083120313FD00FD0B1E280000080088
:1000440083120317C01B2828861329288617401BF0
:100054002D2806132E280617C01A32288612332894
:100064008616401A372806123828061603136D1808
:100074003D2806153E280611861503208611031710
:10008400C019462886134728861740194B2806139B
:100094004C280617C0185028861251288616401876
:1000A400552806125628061603136D185B280615E4
:1000B4005C2806118615032086116D1C6328062012
:0600C4006428132008006F
:1000CA0083120317C001C201C3011030C4000430F7
:1000DA00430203189528F0300313880003174409D4
:1000EA00831603138800032003200F3083120805A8
:1000FA00F00070080317C100700803198F2842081E
:10010A00C000410803198D28C10CC113C00A8628F2
:10011A000430C300C40D44100430C207C30A6C285B
:06012A004008F00008008F
:1001300065207008BF000F3003130805F000031995
:0E014000A3281A209B2803173F08F000080090
:10014E00831203136D1003173F08C00022206D1495
:02015E00080097
:1001600083120313FB01FA01F9018030F800F10C4E
:10017000F00C031CC4287408F90775080318750FE0
:10018000FA070318FB0A0310F01FCC287408FA07BB
:1001900075080318750FFB07FB0CFA0CF90CF80C2B
:1001A000031CB7287B08F3007A08F2007908F100F5
:0601B0007808F0000800D1
:0E01B600831603136E088A006D08820008008D
:1001C40083120313F801F9011030FC00710DF80DCE
:1001D400F90D7408F8027508031C750FF902031869
:1001E400FA287408F80775080318750FF90703103F
:0A01F400F00DF10DFC0BE8280800E7
:1001FE00831603131208013EF000F1010318F10AF1
:10020E006F08F400F501B0200630F2007008F4001B
:10021E007108F500720803191929F50CF40CF51381
:10022E00FF3E12290430F1007408F0007108031922
:10023E002429F00D7010FF3E1E2983120313303057
:10024E007005F3007408F0007508F100F10CF00C65
:10025E00F113F10CF00CF113700895000F309705A7
:06026E007308970408006C
:1002740083160313EF0105306F0203184C296F082E
:10028400831203173D078400203080008316031374
:10029400EF0A3D296F08831203173D07840080018C
:1002A40083160313EF036F08831203173D07BE0081
:1002B4000A30F400F5013B08F0003C08F100E220AC
:1002C4007808F0007908F1003030F00703173E0891
:1002D4008400700880000A30F400F5013B08F00047
:1002E4003C08F100E22070080317BB007108BC0051
:1002F40000307106031D802900307006031D832918
:0C030400872983160313EF035529080016
:10031000831203138716982070080313EF007008E8
:1003200003198B298712D6290130EE00AF0A031971
:10033000B00A062A0230EE00AF0A0319B00A062AF4
:100340000330EE00AF0A0319B00A062A0430EE00AB
:10035000AF0A0319B00A062A0530EE00AF0A0319E6
:10036000B00A062A0630EE00AF0A0319B00A062AC0
:100370000730EE00AF0A0319B00A062A0830EE0073
:10038000AF0A0319B00A062A0930EE00AF0A0319B2
:10039000B00A062A0A30EE00AF01B001062AEE01CB
:1003A000062A0B30EE00AF01B001062A6F08013AB1
:1003B000031994296F08023A03199A296F08033A1E
:1003C0000319A0296F08053A0319A6296F08063AF0
:1003D0000319AC296F08073A0319B2296F08093AC3
:1003E0000319B8296F080A3A0319BE296F080B3A96
:1003F0000319C4296F080D3A0319CA296F080E3A68
:0E0400000319CF296F080F3A0319D1290800FC
:10040E00192A803083120317BB002C2AC030BB0080
:10041E002C2A9430BB002C2AD430BB002C2A8030DE
:10042E00BB002C2A831203173B08013A0319082A32
:10043E003B08023A03190D2A3B08033A0319102A06
:10044E003B08043A0319132A162A3C03F0003B0812
:10045E00F0077008BB007008C00022206D108316D4
:10046E00EF016F08831203173D078400000803197C
:10047E004D2A831603136F08831203173D0784005A
:10048E000008BF00A7208316EF0A382A0313831231
:04049E006D140800D1
:1004A200831603130711831212150C3097040800E8
:1004B200831603138611061106128612061386137B
:1004C200831286110611861306138612061206205F
:1004D200062006208616061686150320861106209B
:1004E2008615032086110620861503208611062014
:1004F2000612861503208611062086150320861112
:100502008612861786150320861106208613061684
:1005120086150320861106128615032086110620F1
:1005220086150320861106168615032086110620DD
:1005320006128615032086118617061786160616DA
:0C05420086150320861106206D140800A9
:0A054E00FF30831603138800080035
:0C0558008312031395011712971208007C
:10056400DB208A110A128000840AED0A0319EE0ABC
:08057400F003031DB22A080088
:10057C0084250730831603139C0006309F008501E9
:10058C0083128501831687010330860083121214AF
:10059C009210F93083169200AC22EF01A722592257
:1005AC0001300317C00022200C300317C00022209A
:1005BC0001300317BB000330BC005A30BD000722CA
:1005CC0002300317BB000230BC00DE30BD00072236
:1005DC000B30FB002630FC005D30FD00FD0BF42AD7
:1005EC00FC0BF42AFB0BF42A00000000013003176B
:1005FC00C00022200C300317C00022203430FC0035
:10060C00F130FD00FD0B082BFC0B082B000000004B
:10061C0001300317BB000330BC001D30BD000722A6
:10062C000B30FB002630FC005D30FD00FD0B1C2B5D
:10063C00FC0B1C2BFB0B1C2B0000000001300317C8
:10064C00BB000130BC001030BD0007220230031784
:10065C00BB000130BC00CF30BD00072298207008D1
:10066C000313EF007008013A0319412B6F08023A8B
:10067C000319412B452B0130E8000030E9006808D4
:10068C0069040319342B6F08013A031D662BEF0123
:10069C0001300317BB000130BC00B130BD00072294
:1006AC000630FB001330FC00AD30FD00FD0B5C2B65
:1006BC00FC0B5C2BFB0B5C2B000000000514832B4C
:1006CC006F08023A031D832BEF0101300317BB00A7
:1006DC000130BC00A030BD0007220B30FB002630DF
:1006EC00FC005D30FD00FD0B792BFC0B792BFB0B1B
:1006FC00792B000000008514832B51220130031745
:10070C00C000222001300317BB000130BC00C030F8
:10071C00BD000722EF016330EE0088216C08633ABC
:10072C000319822C80303006F00080307002031DDB
:10073C00A12B04302F020318492C6E080B3A031D11
:10074C00D42B6A088316EF00FF206A080317BB003E
:10075C0003136B080317BC003130BD003A21023083
:10076C0083120317BB000A30BC003130BD000722D6
:10077C000630FB001330FC00AD30FD00FD0BC42B2C
:10078C00FC0BC42BFB0BC42B000000006330EC00F3
:10079C00EF016330EE00EA01EB01482C6E080A3AD7
:1007AC00031DEF2B6330EC00EF016330EE00EA0128
:1007BC00EB010317BB01BC013130BD003A21023003
:1007CC0083120317BB000A30BC003130BD00072276
:1007DC00482C6A08F0006B08F1000A30F400003075
:1007EC00F500B0206E087007F20071080318013E86
:1007FC00F3007208EA007308EB0080307306F00017
:10080C008030013A7002031D0D2C00307202031867
:10081C00232C6A080317BB0003136B080317BC00D7
:10082C003130BD003A21023083120317BB000A306D
:10083C00BC003130BD000722482C6330EC00EF01C6
:10084C006330EE00EA01EB0101300317BB0001300D
:10085C00BC003130BD0007220B30FB002630FC0001
:10086C005D30FD00FD0B382CFC0B382CFB0B382CB1
:10087C000000000001300317BB000130BC00203029
:10088C00BD000722812C6330EC00EF016330EE00D9
:10089C00EA01EB0101300317BB000230BC004C3005
:1008AC00BD0007220B30FB002630FC005D30FD0044
:1008BC00FD0B5E2CFC0B5E2CFB0B5E2C0000000079
:1008CC0001300317BB000130BC003D30BD000722D6
:1008DC006A080317BB0003136B080317BC00313005
:1008EC00BD003A21023083120317BB000A30BC0052
:1008FC003130BD000722BF2C6E080B3A031D8E2C25
:10090C00EA01EB016330EC00EF016330EE00BF2C29
:10091C006E080A3A031DA92C6330EC00EF0163301A
:10092C00EE00EA01EB010317BB01BC013130BD0045
:10093C003A21023083120317BB000A30BC0031305D
:10094C00BD000722BF2C6E08EA00EB016A080317F2
:10095C00BB0003136B080317BC003130BD003A21F8
:10096C00023083120317BB000A30BC003130BD00CB
:0A097C0007226E08EC00902BC22C3D
:100B080020308400483083120313F000C830831665
:100B1800ED000430EE00B222A03084002030031330
:100B2800F0005E308316ED000530EE00B22268302A
:100B3800840005300313F0007E308316ED00053085
:100B4800EE00B222C03084002D300313F0001030C4
:100B58008316ED000530EE00B222103083178400B2
:100B680021300313F0003D308316ED000530EE0010
:060B7800B2228313080005
:1009900044347534743479342034733465347434A5
:0E09A000743469346E3467343A3420340034D1
:0409AE0000340034DD
:1009B200443455345434593420343C343D34203496
:0809C2003234353435340034C1
:1009CA00443475347434793420347334653474346B
:0E09DA00743469346E3467343A342034003497
:1009E8004D346134783420343334203464346934F9
:0C09F8006734693474346F347334003495
:100A04004D344F3454344F345234203443344F34FF
:0C0A14004E34543452344F344C3400340F
:100A20004434753474347934203473346534743414
:0E0A3000743469346E3467343A342034003440
:100A3E0032342E34203441345F3443346C346F34CA
:0E0A4E0063346B3477346934733465340034A8
:100A5C005F345F34443461346E34203426342034B3
:0E0A6C004C346F3462346F345F345F340034C6
:100A7A0031342E34203443346C346F3463346B3461
:0A0A8A0077346934733465340034A6
:100A940023342334233420344D3445344E345534F4
:0A0AA40020342334233423340034BB
:0E0AAE0044347534743479343A3420340034CE
:100ABC0041345F3443346C346F3463346B34773487
:100ACC0069347334653420347334653474342134AC
:020ADC000034E4
:100ADE0043346C346F3463346B3477346934733429
:0E0AEE0065342034733465347434213400349C
:040AFC00003400348E
:040B00000034003489
:020B0400633458
:02400E004A2F37
:00000001FF
